S014000045696E646F706472616368742E737265633B
S113000045C0000058C0000056C0000054C00000A5
S113001052C0000050C000004EC000004CC00000A0
S11300204AC0000048C0000046C0000044C00000B0
S113003059C0000040C000003EC000003CC00000A9
S11300403AC0000038C0000036C0000034C00000D0
S113005032C0000030C000002EC000002CC00000E0
S11300602AC0000028C0000026C0000024C00000F0
S113007022C0000020C000001EC000001CC0000000
S11300801AC0000018C0000016C0000011241FBED2
S1130090CFEFD0E1DEBFCDBF11E0A0E0B1E0EEE8EC
S11300A0F1E000E00BBF02C007900D92A230B1074F
S11300B0D9F702D06AC0A4CFE1E6F0E08081826083
S11300C080838EB588608EBD87B7806187BF789442
S11300D080910001909101019BBD8ABD8EB5836022
S11300E08EBDFFCF1F920F920FB60F9211240BB645
S11300F00F922F938F939F93EF93FF93809100011F
S11301009091010188359B4150F482E08093620014
S113011088E59BE190930101809300011AC08091CE
S1130120000190910101893B984868F088EB98E8B8
S11301309093010180930001E2E6F0E0908182E077
S11301408927808306C0E2E6F0E0908182E0892777
S1130150808380910001909101018C529140909391
S113016001018093000180910001909101019BBDE8
S11301708ABDFF91EF919F918F912F910F900BBEAC
S11101800F900FBE0F901F901895F894FFCFAC
S105018EB8882B
S9030000FC
